:10008000C0F9A4B0999282F880908883C6A1868E28
:04009000FEFDFBF77F
:100003007590EFE4F508209013E50825E025E0243A
:1000130080F582E43400F583E493F580209113E5C1
:100023000825E025E02481F582E43400F583E49398
:10003300F580209213E50825E025E02482F582E48B
:100043003400F583E493F580209313E50825E02538
:10005300E02483F582E43400F583E493F5807FF4B0
:100063007E01120094AF9043070FEF25E0FF430793
:0C0073000F8F900508E508C39404408A34
:01007F00225E
:10009400E4FDFCC3ED9FEC9E50070DBD00010C80F8
:0100A400F269
:0100A5002238
:030000000200A655
:0C00A600787FE4F6D8FD758108020003A5
:00000001FF
0005