:1000B2002A2A2A2A2A2A2A2A2A2A2A2A2A2A2A2A9E
:1000C2002A2A2A2A2A2A2A2A2A2A2A2A0D0A00D44B
:1000D200B6B3CCB5F7CAD4B9A4BEDFB4AEBFDAB2F8
:1000E200E2CAD40D0A005A68616E675A68694861AB
:1000F2006F2031343535323631330D0A002A2A2A3F
:100102002A2A2A2A2A2A2A2A2A2A2A2A2A2A2A2A4D
:0E0112002A2A2A2A2A2A2A2A2A0D0A0D0A0037
:06001C00010900010800CB
:10012000120150E50860FC7BFF7A0079B212017A77
:100130007BFF7A0079D112017A7BFF7A0079E8128D
:10014000017A7BFF7A0079FF12017AE4F50880D307
:0300230002016671
:10016600309808C298859990750801309905C2990A
:0401760075090032D5
:0A018D008F99750901E50970FC2245
:10017A00120003FF600C12018D740129F9E43AFAA6
:03018A0080EE22E2
:10015000438920758DFD758BFDC29FD29ED29CD2A6
:06016000ACD2AFD28E22EA
:03000000020026D5
:0C002600787FE4F6D8FD75810902006DBA
:10000300BB010689828A83E0225002E722BBFE02FB
:09001300E32289828A83E493222E
:10003200020120E493A3F8E493A34003F68001F2C3
:1000420008DFF48029E493A3F85407240CC8C333CF
:10005200C4540F4420C8834004F456800146F6DF9E
:10006200E4800B010204081020408090001CE47E12
:10007200019360BCA3FF543F30E509541FFEE49393
:10008200A360010ECF54C025E060A840B8E493A35A
:10009200FAE493A3F8E493A3C8C582C8CAC583CA85
:1000A200F0A3C8C582C8CAC583CADFE9DEE780BE3D
:0100220000DD
:00000001FF
